:100000000C942A000C9447000C9447000C94470071
:100010000C9447000C9447000C9447000C94470044
:100020000C9447000C9447000C9447000C94470034
:100030000C9447000C9447000C9447000C94470024
:100040000C9447000C9447000C9447000C94470014
:100050000C94470011241FBECFE5D4E0DEBFCDBF16
:1000600010E0A0E6B0E0EEE6F4E002C005900D92EC
:10007000A236B107D9F713E0A2E6B0E001C01D92A5
:10008000A439B107E1F70E946A000C9435020C9480
:100090000000789480E88BBF88E085BF08950E94B7
:1000A00027020E9470000E942A020E94E2010E9420
:1000B0007D000E94A30085E00E948F000E948500C1
:1000C00062E30E9416010E94480180E09AEF0197C6
:1000D000F1F708950E944F00CA99FECFA998FCCF6E
:1000E0008BB38F608BBB8AB3807F8ABB8BB38063FB
:1000F0008BBB8AB38F7C8ABB0895BE98B99AC19A8C
:10010000B89AC09A899A919A0895C19883E00E94FA
:10011000310280E00E943102C19A8FB108951F938D
:10012000182FC19886E00E943102C19AC19882E0DE
:100130000E94310280E00E943102812F0E94310230
:10014000C19A1F91089520E030E00FC0FA01E80F36
:10015000F91FEE59FF4F1082019688309105B1F7D3
:100160002F5F3F4F2636310549F080E090E0A9012E
:1001700063E0440F551F6A95E1F7E8CF08950F93A8
:100180001F93CF93DF93982FEA01F901D8016636C8
:1001900018F085E6888301C06883903418F087E002
:1001A000808303C0992319F410821C9207C0892F01
:1001B000869586958695808397709C93DF91CF91E5
:1001C0001F910F9108950F931F93DF93CF9300D04A
:1001D0000F92CDB7DEB7AE014F5F5F4F9E012E5F2E
:1001E0003F4F8E010D5F1F4F0E94BF00E981F0E07D
:1001F0008A8173E0EE0FFF1F7A95E1F7E80FF11D9A
:10020000EE59FF4F208181E090E00B8002C0880F03
:10021000991F0A94E2F78095822380830F900F90B4
:100220000F90CF91DF911F910F9108950F931F931E
:10023000DF93CF9300D00F92CDB7DEB7AE014F5F03
:100240005F4F9E012E5F3F4F8E010D5F1F4F0E943B
:10025000BF00E981F0E08A81A3E0EE0FFF1FAA95BD
:10026000E1F7E80FF11DEE59FF4F208181E090E0AA
:100270000B8002C0880F991F0A94E2F7282B208375
:100280000F900F900F90CF91DF911F910F910895D4
:1002900082E690E00E94A001089581E080936000D2
:1002A000809160008823E1F708951092600008951E
:1002B000BB9A8AE183BF8FEF8CBF08958D9A959882
:1002C00080ED97E00197F1F7959A80E197E2019729
:1002D000F1F708958E9A92B380749F7B892B82BB2D
:1002E0008C9A9498862F0E943102949A08951F93B5
:1002F000182F682F6F7080E00E946A0112951F709E
:10030000106180E0612F0E946A011F910895682F9B
:10031000883008F067E0606B80E00E946A01089511
:100320000F931F93162F042F0E948701812F0E9485
:1003300077018FEF602F0E946A011F910F9108953E
:10034000AF92BF92DF92EF92FF920F931F93DF93D2
:10035000CF930F92CDB7DEB7D82EE92E00E010E094
:1003600016C0F501E00FF11F40818F2D692F998391
:100370000E94900199819F5F28E030E0A20EB31E99
:10038000963679F70F5F1F4F0830110539F0F02EC0
:100390008D2D9E2D9C01590190E0E3CF88EE93E0D6
:1003A00028EC30E0F9013197F1F70197D9F70F9078
:1003B000CF91DF911F910F91FF90EF90DF90BF9051
:1003C000AF900895BB9A8AE183BF8FEF8CBF0E94E4
:1003D0005E0180E060E40E946A0180E061EA0E94C0
:1003E0006A0180E060EC0E946A0180E064EA0E9499
:1003F0006A0180E066EA0E946A0180EB94E028ECE2
:1004000030E0F9013197F1F70197D9F780E062EA1E
:100410000E946A0180E06FE20E946A0180E067E268
:100420000E946A0180E061E80E946A0180E060E168
:100430000E946A0180E06AEF0E946A0180E060E940
:100440000E946A0180E06FEA0E946A010895A99AF9
:10045000A19A0895BC9AC49ABD9ABF9A81E58DB9B4
:0E04600008958FB9779BFECF0895F894FFCFD3
:02046E0001008B
:00000001FF
